:100000000A128A11FC2F00308A000408840A820731
:1000100000344F347534743420346F3466342034F3
:10002000523461346E34673465340034443465349A
:10003000763465346C346F34703465346434203411
:100040004234793400344434693473347434613460
:100050006E346334653420343D34203400346534E8
:100060006C3465346334743472346F3453346F34A5
:0C0070006D346534003463346D340034AA
:10057C0000300A128A11E3220A128A1101300A127F
:10058C008A11E3220800F000701CD02A8312031396
:10059C000816D32A831203130812F01CD72A8816C4
:1005AC00D82A8812701DDC2A0817DD2A0813F01DC2
:1005BC00E12A8817080088130800F300831203133C
:1005CC00081173080A128A11C9220A128A1183129D
:1005DC00031388150B30F2006230F100F10BF42A92
:1005EC00F20BF42A00008312031388110800FD019A
:1005FC00F91F072BF809F909F80A0319F90AFD0183
:10060C00FD0A7808F0007908F100F2018E30FB0049
:10061C007B08F3007D08FC007C08F4000A128A11A8
:10062C00C7247008F8007108F9007208FA00080075
:10063C00F700F501F6017508770784000A128A1194
:10064C0003200A128A11003803190800750877076D
:10065C0084000A128A1103200A128A110A128A11C2
:10066C0040230A128A110130F5070318F60A0030EC
:10067C00F607212BF40074080F39F1007108F20011
:10068C007408F039F1007108F30083120313081594
:10069C007308F10004300310F10CFF3E031D512BC5
:1006AC0071080A128A11C9220A128A1183120313C1
:1006BC0088151A30F100F10B612B00008312031323
:1006CC00881172080A128A11C9220A128A1183121D
:1006DC00031388151A30F100F10B722B00008312F2
:1006EC00031388110800F7007708013A031D9F2BAC
:1006FC0074087F3EF5007508FA007A08F50004309E
:10070C000310F50CFF3E031D862B7508F6007608CA
:10071C00F8007A080F39F5007508F90078080A1204
:10072C008A11E3220A128A1179080A128A11E32229
:10073C0008007708023A031D08007408BF3EF50054
:10074C007508FA007A08F50004300310F50CFF3E2A
:10075C00031DAB2B7508F6007608F8007A080F39E4
:10076C00F5007508F90078080A128A11E3220A12BA
:10077C008A1179080A128A11E3220800F601F31F84
:10078C00CE2BF209F309F20A0319F30AF601F60A61
:10079C00F11FD52BF009F109F00A0319F10A7108C0
:1007AC0070040319022CF501F50AF11BE92B013039
:1007BC000310F00DF10DFF3E031DDE2B0130F40094
:1007CC007408F507DB2B71087302031DEF2B7008FF
:1007DC007202031CF72B7008F2027108031CF3035E
:1007EC00F30201300310F10CF00CFF3E031DF82B4B
:1007FC000130F502031DE92B760803190A2CF209C6
:10080C00F309F20A0319F30A7308F101F1077208EC
:10081C00F001F007080000300A128A11C9220A12EE
:10082C008A113430F500F130F400F40B1B2CF50B6D
:10083C001B2C202C03300A128A11E3220A128A1173
:10084C000D30F500FB30F400F40B2A2CF50B2A2CA0
:10085C002F2C03300A128A11E3220A128A111D303E
:10086C00F5009130F400F40B392CF50B392C0330D6
:10087C000A128A11E3220A128A1102300A128A1110
:10088C00E3220A128A1102300A128A11E3220A1296
:10089C008A1108300A128A11E3220A128A110030D6
:1008AC000A128A11E3220A128A110C300A128A11D6
:1008BC00E3220A128A1100300A128A11E3220A1268
:1008CC008A1106300A128A11E3220800F601F11F80
:1008DC00762CF009F109F00A0319F10AF601F60A6F
:1008EC00F31F812CF209F309F20A0319F30A013000
:1008FC00F4007408F606F701F80171087004031986
:10090C00B82CF501F50AF11B972C01300310F00DF2
:10091C00F10DFF3E031D8C2C0130F4007408F5071B
:10092C00892C01300310F70DF80DFF3E031D982C98
:10093C0071087302031DA42C70087202031CAD2CE9
:10094C007008F2027108031CF303F30277140130F0
:10095C000310F10CF00CFF3E031DAE2C0130F50220
:10096C00031D972C76080319C02CF709F809F70A10
:10097C000319F80A7808F101F1077708F001F0077C
:10098C00080073080319CF2C720871047004031D3E
:10099C00E22C0030F0000030F1000030F2000800D2
:1009AC000130F5007508F30701300310F20CF10C5F
:1009BC00F00CFF3E031DDB2CFE3072050319FD2CE1
:1009CC00D62C0130F5007508F3070130F007003024
:1009DC0003180130F107003003180130F207013021
:1009EC000310F20CF10CF00CFF3E031DF62CFF3043
:1009FC00720503190C2DE72C0130F30201300310A2
:100A0C00F00DF10DF20DFF3E031D052DF11F022D12
:100A1C007318162DFF30F0057F30F105FF30F2050D
:100A2C000310F30C7308F500F601F70110300310F6
:100A3C00F50DF60DF70DFF3E031D1D2D7508F00489
:100A4C007608F1047708F204740803190800F21709
:100A5C000800831203133008B4003108B5003208C3
:100A6C00B6000310350D360DB7003708BD00BD08B4
:100A7C00031D492D0030B3000030B2000030B1002E
:100A8C000030B00008003008B4003108B50032085E
:100A9C00B60017300310B60CB50CB40CFF3E031D9A
:100AAC00502D3408B7003708B800B117FF30B00527
:100ABC00FF30B1050030B2053008B9003108BA007A
:100ACC003208BB00BC018E30BD02BD1F8B2D3D0812
:100ADC00803A8F3E03187B2D0030B3000030B200FB
:100AEC000030B1000030B000080001300310BC0C25
:100AFC00BB0CBA0CB90CFF3E031D7C2D0130B400AD
:100B0C003408BD070319A62D7B2D18303D02031C9C
:100B1C00A32D0030B3000030B2000030B100003023
:100B2C00B00008000130B4000310B90DBA0DBB0DB4
:100B3C00BC0DB40B9A2D0130BD02BD08031D982DC0
:100B4C0038080319B42DB909BA09BB09BC09B90A8B
:100B5C000319BA0A0319BB0A0319BC0A3C08B300EF
:100B6C003B08B2003A08B1003908B0000800831203
:100B7C0003132308A6002408A7002508A8000310C7
:100B8C00270D280DA9002908AE00AE08031DD52D90
:100B9C000030A0000030A1000030A20008002008A6
:100BAC00A6002108A7002208A8000310270D280D75
:100BBC00A9002908AF00AF08031DEB2D0030A000E1
:100BCC000030A1000030A20008000030AB00003063
:100BDC00AC000030AD0089302F07A6002608AE020D
:100BEC002308A6002408A7002508A800103003102D
:100BFC00A80CA70CA60CFF3E031DFD2D2608A90072
:100C0C002908AF002008A6002108A7002208A80088
:100C1C0010300310A80CA70CA60CFF3E031D0F2EC2
:100C2C002608A9002908AF068030A6002608AF05C3
:100C3C00A417FF30A305FF30A4050030A505A117AC
:100C4C00FF30A005FF30A1050030A2051830A6002A
:100C5C002608AA0001300310AB0DAC0DAD0DFF3E04
:100C6C00031D312E22082502031D422E21082402C9
:100C7C00031D422E20082302031C4F2E2008A30222
:100C8C002108031C210FA4022208031C220AA5021E
:100C9C002B1401300310A30DA40DA50DFF3E031D55
:100CAC00502E0130AA02031D302E2B08F0002C0808
:100CBC00F1002D08F2002E08A6002608F3002F08DC
:100CCC00A7002708F4000A128A11C724700883129F
:100CDC000313A0007108A1007208A20008001030D4
:100CEC0083160313860088010A128A1111240A1232
:100CFC008A11F401F40A01300A128A1179230A12BA
:100D0C008A110E300A128A111E230A128A11F4015A
:100D1C00F40A02300A128A1179230A128A11273036
:100D2C000A128A111E230A128A111F30831203130E
:100D3C00C0007130BF003B30BE00BE0BA32EBF0BFA
:100D4C00A32EC00BA32E00000A128A11BE220A1277
:100D5C008A111030831203139000831203138F0136
:100D6C008E0106140630BE00BE0BBA2E0000831294
:100D7C0003130610061EC02E1014061AC32E1010D4
:100D8C000F08C201C2070E08C101C1074208F901D0
:100D9C00F9074108F801F8070A128A11FD220A1214
:100DAC008A11780883120313A3007908A4007A0827
:100DBC00A5004830A0006B30A1004230A2000A12FE
:100DCC008A11BD250A128A11831203132008B00060
:100DDC002108B1002208B2000A128A112F250A122A
:100DEC008A11831203133108C201C2073008C101F2
:100DFC00C1074108013EC10042080318013E003EF4
:100E0C00C2004208803AFF0080307F02031D102F81
:100E1C0002304102031CDA2F831203134208803A7A
:100E2C00FF0081307F02031D1D2F913041020318FA
:100E3C00DA2F0A128A11BE220A128A11F401F40A5C
:100E4C0001300A128A1179230A128A111B300A12F4
:100E5C008A111E230A128A110E3083120313BE004C
:100E6C003E08F40001300A128A1179230A128A1101
:100E7C000A30F0000030F100831203134208F30132
:100E8C00F3074108F201F2070A128A11C4230A126D
:100E9C008A117008303E0A128A1140230A128A11F4
:100EAC000A30F0000030F100831203134208F30102
:100EBC00F3074108F201F2070A128A116C240A1294
:100ECC008A11710883120313C201C2077008C10191
:100EDC00C1070D30BE003E08F40001300A128A1121
:100EEC0079230A128A110A30F0000030F1008312C3
:100EFC0003134208F301F3074108F201F2070A1247
:100F0C008A11C4230A128A117008303E0A128A11FF
:100F1C0040230A128A110A30F0000030F1008312CB
:100F2C0003134208F301F3074108F201F2070A1216
:100F3C008A116C240A128A11710883120313C201DC
:100F4C00C2077008C101C1070C30BE003E08F40096
:100F5C0001300A128A1179230A128A110A30F00020
:100F6C000030F100831203134208F301F307410828
:100F7C00F201F2070A128A11C4230A128A117008AC
:100F8C00303E0A128A1140230A128A110F30831242
:100F9C000313BE003E08F40001300A128A117923B3
:100FAC000A128A113330E82F0A128A11BE220A1251
:100FBC008A11F401F40A01300A128A1179230A12F7
:100FCC008A1101300A128A111E230A128A11053065
:100FDC0083120313C0000F30BF00F430BE00BE0BF1
:100FEC00F52FBF0BF52FC00BF52FB32E83010A1273
:040FFC008A11752EB3
:02400E007AFF37
:00000001FF
