:060000000A128A11122809
:10000800FE00030E83120313C0000408C1000A088F
:10001800C2007F08C3000A128A11E22C0A128A1150
:100028001528CA01CB0183010A128A111B28103036
:1000380083160313860088018B170B108B150A1281
:100048008A1126240A128A1183120313C801C80AC6
:1000580001300A128A1187240A128A110E300A12F4
:100068008A11A4250A128A1183120313C801C80A27
:1000780002300A128A1187240A128A1127300A12BA
:100088008A11A4250A128A111F3083160313A800A7
:100098007130A7003B30A600A60B5028A70B5028AC
:1000A800A80B502800000A128A111D260A128A116C
:1000B8001030831203139000831203138F018E01F3
:1000C8000614063083160313A600A60B6928000041
:1000D800831203130610023083160313A80004309A
:1000E800A700BA30A600A60B7728A70B7728A80B7D
:1000F80077280000831203134A08013ECA004B0800
:100108000318013E003ECB004B08803AFF008030C8
:100118007F02031D912802304A02031C6F298312B3
:1001280003134B08803AFF0081307F02031D9E288D
:1001380091304A0203186F290A128A111D260A12E1
:100148008A1183120313C801C80A01300A128A11DE
:1001580087240A128A111B300A128A11A4250A124E
:100168008A110E3083160313A60026088312031380
:10017800C80001300A128A1187240A128A110A302B
:1001880083120313C4000030C5004B08C701C7071A
:100198004A08C601C6070A128A11C1230A128A111F
:1001A800831203134408303E0A128A116B250A127F
:1001B8008A110A3083120313C4000030C5004B08AB
:1001C800C701C7074A08C601C6070A128A11D922F9
:1001D8000A128A11831203134508CB01CB0744087E
:1001E800CA01CA070D3083160313A6002608831216
:1001F8000313C80001300A128A1187240A128A11CF
:100208000A3083120313C4000030C5004B08C7012D
:10021800C7074A08C601C6070A128A11C1230A126B
:100228008A11831203134408303E0A128A116B257F
:100238000A128A110A3083120313C4000030C50061
:100248004B08C701C7074A08C601C6070A128A1120
:10025800D9220A128A11831203134508CB01CB074E
:100268004408CA01CA070C3083160313A6002608DF
:1002780083120313C80001300A128A1187240A1254
:100288008A110A3083120313C4000030C5004B08DA
:10029800C701C7074A08C601C6070A128A11C1233F
:1002A8000A128A11831203134408303E0A128A1173
:1002B8006B250A128A110F3083160313A60026082D
:1002C80083120313C80001300A128A1187240A1204
:1002D8008A1133307F290A128A111D260A128A11BF
:1002E80083120313C801C80A01300A128A1187242D
:1002F8000A128A1101300A128A11A4250A128A11D7
:10030800053083160313A8000F30A700F430A600A9
:10031800A60B8C29A70B8C29A80B8C296028831283
:1003280003132308A6002408A7002508A800031023
:10033800270D280DA9002908AE00AE08031DAB291A
:100348000030A0000030A1000030A2000800200802
:10035800A6002108A7002208A8000310270D280DD1
:10036800A9002908AF00AF08031DC1290030A0006B
:100378000030A1000030A20008000030AB000030BF
:10038800AC000030AD0089302F07A6002608AE0269
:100398002308A6002408A7002508A8001030031089
:1003A800A80CA70CA60CFF3E031DD3292608A900FC
:1003B8002908AF002008A6002108A7002208A800E5
:1003C80010300310A80CA70CA60CFF3E031DE5294E
:1003D8002608A9002908AF068030A6002608AF0520
:1003E800A417FF30A305FF30A4050030A505A11709
:1003F800FF30A005FF30A1050030A2051830A60087
:100408002608AA0001300310AB0DAC0DAD0DFF3E60
:10041800031D072A22082502031D182A2108240281
:10042800031D182A20082302031C252A2008A302DA
:100438002108031C210FA4022208031C220AA5027A
:100448002B1401300310A30DA40DA50DFF3E031DB1
:10045800262A0130AA02031D062A2B08F0002C08C0
:10046800F1002D08F2002E08A6002608F3002F0838
:10047800A7002708F4000A128A115923700883126A
:100488000313A0007108A1007208A20008008312DB
:1004980003133008B4003108B5003208B600031061
:1004A800350D360DB7003708BD00BD08031D652A98
:1004B8000030B3000030B2000030B1000030B000AE
:1004C80008003008B4003108B5003208B60017300B
:1004D8000310B60CB50CB40CFF3E031D6C2A34088F
:1004E800B7003708B800B117FF30B005FF30B105C5
:1004F8000030B2053008B9003108BA003208BB0034
:10050800BC018E30BD02BD1FA72A3D08803A8F3E30
:100518000318972A0030B3000030B2000030B10051
:100528000030B000080001300310BC0CBB0CBA0C42
:10053800B90CFF3E031D982A0130B4003408BD07EA
:100548000319C22A972A18303D02031CBF2A00301B
:10055800B3000030B2000030B1000030B000080035
:100568000130B4000310B90DBA0DBB0DBC0DB40BAE
:10057800B62A0130BD02BD08031DB42A3808031984
:10058800D02AB909BA09BB09BC09B90A0319BA0AB8
:100598000319BB0A0319BC0A3C08B3003B08B200A4
:1005A8003A08B1003908B000080083160313A10106
:1005B80083120313C51FE92AC409C509C40A03190C
:1005C800C50A83160313A101A10A8312C71FF72ABC
:1005D800C609C709C60A0319C70A0130C80048086E
:1005E80083160313A10683160313A201A301831222
:1005F8000313450844040319422B83160313A0016F
:10060800A00A83120313C51B182B01308312031091
:10061800C40DC50DFF3E031D0B2B0130C800480853
:1006280083160313A007052B013083160313031049
:10063800A20DA30DFF3E031D1B2B831203134508B8
:100648004702031D292B44084602031C342B440887
:10065800C6024508031CC703C702831603132214E6
:10066800013083120310C50CC40CFF3E031D362B4A
:10067800013083160313A002031D182B83160313DE
:10068800210803194C2BA209A309A20A0319A30ADA
:10069800230883120313C501C50783160313220811
:1006A80083120313C401C407080073080319612BDC
:1006B800720871047004031D742B0030F0000030C0
:1006C800F1000030F20008000130F5007508F3076A
:1006D80001300310F20CF10CF00CFF3E031D6D2BE2
:1006E800FE30720503198F2B682B0130F500750851
:1006F800F3070130F007003003180130F10700302C
:1007080003180130F20701300310F20CF10CF00C61
:10071800FF3E031D882BFF30720503199E2B792B92
:100728000130F30201300310F00DF10DF20DFF3E20
:10073800031D972BF11F942B7318A82BFF30F0057E
:100748007F30F105FF30F2050310F30C7308F50054
:10075800F601F70110300310F50DF60DF70DFF3E09
:10076800031DAF2B7508F0047608F1047708F2042E
:10077800740803190800F217080083160313A1016F
:1007880083120313C71FD12BC609C709C60A031949
:10079800C70A83160313A101A10A8312C51FD92B07
:1007A800C409C509C40A0319C50A4508440403193C
:1007B800102C83160313A001A00A83120313C51B70
:1007C800F42B013083120310C40DC50DFF3E031D29
:1007D800E72B0130C800480883160313A007E12B54
:1007E800831245084702031DFB2B44084602031CDD
:1007F800032C4408C6024508031CC703C70201307E
:100808000310C50CC40CFF3E031D042C01308316D5
:100818000313A002031DF42B8316031321080319E5
:100828001E2C83120313C609C709C60A0319C70A6F
:100838008316031383124708C501C5074608C40178
:10084800C407080000300A128A1105260A128A1104
:10085800343083120313C900F130C800C80B322C9E
:10086800C90B322C372C03300A128A11EB250A12D5
:100878008A110D3083120313C900FB30C800C80B5E
:10088800432CC90B432C482C03300A128A11EB2540
:100898000A128A111D3083120313C9009130C8004F
:1008A800C80B542CC90B542C03300A128A11EB259F
:1008B8000A128A1102300A128A11EB250A128A11C9
:1008C80002300A128A11EB250A128A1108300A121C
:1008D8008A11EB250A128A1100300A128A11EB25B7
:1008E8000A128A110C300A128A11EB250A128A118F
:1008F80000300A128A11EB250A128A1106300A12F0
:100908008A11EB25080083160313A2002208013A76
:10091800031DB52C8312031348087F3E8316031367
:10092800A0002008A5002508A00004300310A00C92
:10093800FF3E031D9A2C2008A1002108A3002508CA
:100948000F39A0002008A40023080A128A11EB25F9
:100958000A128A118316031324080A128A11EB2536
:100968000800831603132208023A031D08008312A5
:1009780003134808BF3E83160313A0002008A500F0
:100988002508A00004300310A00CFF3E031DC72C4F
:100998002008A1002108A30025080F39A00020087D
:1009A800A40023080A128A11EB250A128A11831659
:1009B800031324080A128A11EB2508000B1C242DA6
:1009C8008B11061EE82C1014061A232D10100F0880
:1009D800BE00BF013E08BF00BE013E080E04F8007D
:1009E8003F08F9000A128A11CA250A128A117808E2
:1009F80083120313A3007908A4007A08A5004830DD
:100A0800A0006B30A1004230A2000A128A11932183
:100A18000A128A11831203132008B0002108B100BA
:100A28002208B2000A128A114B220A128A11831272
:100A380003133108CB01CB073008CA01CA070B10D2
:100A48008B154308FF0042088A0041088400400EC5
:100A58008300FE0E7E0E090005308A000408840A11
:100A6800820700344F347534743420346F3466345C
:100A78002034523461346E3467346534003444347D
:100A88006534763465346C346F347034653464346A
:100A9800203442347934003444346934733474343F
:100AA80061346E346334653420343D34203400348A
:100AB80065346C3465346334743472346F3453344D
:100AC8006F346D346534003463346D34003483120C
:100AD8000313C80048080F39C5004508C600480870
:100AE800F039C5004508C70008154708C500043097
:100AF8000310C50CFF3E031D7C2D45080A128A1100
:100B080005260A128A118312031388151A30C500A4
:100B1800C50B8C2D000083120313881146080A1296
:100B28008A1105260A128A118312031388151A30AE
:100B3800C500C50B9D2D0000831203138811080002
:100B480083160313A200A001A10120082207840034
:100B58000A128A1130250A128A110038031908006E
:100B68002008220784000A128A1130250A128A11E5
:100B78000A128A116B250A128A110130831603138F
:100B8800A0070318A10A0030A107A92DFD01F91F2C
:100B9800D42DF809F909F80A0319F90AFD01FD0A23
:100BA8007808F0007908F100F2018E30FB007B082C
:100BB800F3007D08FC007C08F4000A128A1159230E
:100BC8007008F8007108F9007208FA00080083122A
:100BD8000313C700081147080A128A1105260A12CA
:100BE8008A118312031388150B30C6006230C500C2
:100BF800C50BFC2DC60BFC2D0000831203138811B6
:100C0800080083120313C400441C0C2E08160D2E72
:100C18000812C41C112E8816122E8812441D162E76
:100C28000817172E0813C41D1B2E881708008813D1
:100C3800080000300A128A11EB250A128A110130C5
:080C48000A128A11EB250800D5
:02400E007AFF37
:00000001FF
