:020000040000FA
:08000000803102288731FB2F3B
:100F4C00F0004E010F1EAB2FAC2FA72F70084201E3
:100F5C009A000800400113137E014E131030A600B6
:100F6C0042019C0119309B009F111E111E129D17EE
:100F7C009E161E130800CE2F71088400720885007F
:100F8C0000088731A62787310130F1070030F23D88
:100F9C0071088400720885001200031DD62FD72F0C
:100FAC00C22F08008731B02787310330F5008A3013
:100FBC00F4005630890BE02FF40BE02FF50BE02FEB
:100FCC000030F1008830F2008731C127873128309A
:100FDC00F6008830F7007708F2007608F1008731C8
:100FEC00C1278731F82F80310228F601F701400123
:100FFC008731D82F5B342A345D34533465347234E2
:10100C00693461346C34203443346F346E346E3450
:10101C0065346334743469346F346E34203473340F
:10102C0075346334633465347334733466347534B3
:10103C006C34003432343734303400343134383496
:0A104C0030340034393430340034FD
:020000040001F9
:0A000E00F93FFF3F9F3FFF3FFF3F18
:00000001FF
