:020000040000FA
:08000000803102288731F52F41
:10017000640080010131890BB9280034F0004E0180
:100180000F1EC328C428BF28700842019A00080027
:10019000400113137E014E131030A60042019C0152
:1001A00019309B009F111E111E129D179E161E13C3
:1001B00008004001121692111211921412147E01BD
:1001C000C301400117159E131E16F0309E051F082F
:1001D0001F3940389F001F161F08F03901389F0053
:1001E0000800FF28240884002508850000088031C5
:1001F000BE20803101304001A4070030A53D400100
:1002000024088400250885001200031D08290929F7
:10021000F2280800F401F501701C0F291029142997
:100220007208F4077308F53D0130F235F30D890BC0
:1002300015290130F136F00C890B1A297008710468
:10024000031D232924290C297508F1007408F000E6
:100250000800F800F401F5017008F200F3017208DB
:10026000F6007308F700781C362937293B297608F1
:10027000F4077708F53D0130F635F70D890B3C2979
:100280000310F80C7808031D4629472933297508FF
:10029000F1007408F00008004001111491141115C8
:1002A00091157E013810B8103811B8114001921222
:1002B0007E01C3120A309D009F3046019200053036
:1002C00044019E00133045018D00FF30460190002F
:1002D000FF309100013045019000F0308E000800A1
:1002E0007C08803AFD0080307D02031D792915309D
:1002F0007B02031C7C297D29812914304601910051
:1003000094297C08803AFD0080307D02031D8A29F3
:1003100001307B0203188D298E2991294601910114
:1003200094297B0846019100080040018D1C992901
:100330009A29A3290D189D299E29A3295A30F20034
:100340000030F300BF298D1CA629A729B0290D1C58
:10035000AA29AB29B029B430F2000030F300BF293C
:100360008D18B329B429BD290D1CB729B829BD2979
:100370000E30F2000130F300BF29F201F3017308DF
:10038000F1007208F0000800F601F31FC829C9291E
:10039000D029F209F309F20A0319F30AF601F60A61
:1003A000F11FD329D429D929F009F109F00A031939
:1003B000F10A700871040319DE29DF29082AF50102
:1003C000F50AEB290130F035F10D890BE3290130F5
:1003D000F4007408F507F11FEE29EF29E2297108EE
:1003E0007302031DF52970087202031CF829F9290C
:1003F000FD297008F2027108F33B0130F136F00C70
:10040000890BFE290130F502031D072A082AEF296E
:10041000760803190C2A0D2A122AF209F309F20AA6
:100420000319F30A7308F1007208F00008007A0853
:100430004001A1007908A0000B30A2000030A30009
:10044000D601FA1F242A252A2A2AF909FA09F90AC3
:100450000319FA0A0A30F0000030F1007A08F300BC
:100460007908F2008131C42182317008303EFB00EE
:10047000FF304001A207FF30A33D22084B3E86001B
:1004800087017B0881000A30F0000030F1007A0813
:10049000F3007908F20082316C2282317108FA008F
:1004A0007008F90079087A04031D572A582A2A2A65
:1004B0004001A11F5C2A5D2A692A2D30FB00FF3014
:1004C000A207FF30A33D22084B3E860087017B0830
:1004D000810022084B3E0800F601F11F702A712AA4
:1004E000782AF009F109F00A0319F10AF601F60A6F
:1004F000F31F7B2A7C2A852AF209F309F20A0319E1
:10050000F30A0130F4007408F606F701F8017008E8
:10051000710403198C2A8D2ABC2AF501F50A992A3F
:100520000130F035F10D890B912A0130F400740887
:10053000F507F11F9C2A9D2A902A0130F735F80D06
:10054000890B9E2A71087302031DA82A7008720283
:10055000031CAB2AAC2AB12A7008F2027108F33BE3
:1005600077140130F136F00C890BB22A0130F50214
:10057000031DBB2ABC2A9D2A76080319C02AC12A5A
:10058000C62AF709F809F70A0319F80A7808F100EA
:100590007708F0000800031040013C0D3D0DBE003F
:1005A0003E08C4004408031DD62AD72AE02A00309A
:1005B000BD000030BC000030BB000030BA003F2B53
:1005C0003A08BE003B08BF003C08C0003D08C1001F
:1005D0001F30C136C00CBF0CBE0C890BE92A3E0887
:1005E000C2004208C300BC17FF30BA05FF30BB058C
:1005F000FF30BC050030BD059630C402C41F012B7E
:10060000022B1A2B4408803A973E0318082B092B1B
:100610000A2BD72A0130BD36BC0CBB0CBA0C890B97
:100620000B2B0130BE003E08C407031D182B192BED
:100630000A2B2F2B20304402031C1F2B202B2A2B8C
:10064000D72A0130BA35BB0DBC0DBD0D890B222B4D
:100650000130C4024408031D2E2B2F2B212B4308ED
:100660000319332B342B3F2BBA09BB09BC09BD0935
:10067000BA0A0319BB0A0319BC0A0319BD0A080008
:1006800040010C1C442B452B4A2BE830A4000330BE
:10069000A5004C2BA401A5018C1C4F2B502B552BD6
:1006A0006430A6000030A700572BA601A7010C1D3F
:1006B0005A2B5B2B602B0A30A8000030A900622B5C
:1006C000A801A9018C1D652B662B6B2B0130AA009C
:1006D0000030AB006D2BAA01AB0126082407A00057
:1006E0002708253DA10028082007A2002908213D50
:1006F000A3002A082207B2002B08233DB3003208CA
:100700003304031D842B852B882BF901FA01DA2B86
:100710000130AE000030AF000530B0000030B10055
:10072000C82B0A30F0000030F10040013308F3001C
:100730003208F2008131C421833171084001AD00DB
:100740007008AC002D08F1002C08F0002F08F30011
:100750002E08F20081310A218331400130087007F0
:10076000B0003108713DB1000A30F0000030F100F6
:100770003308F3003208F20082316C2283317108B1
:100780004001B3007008B2002E35AE002F0DAF004F
:100790003308803AA00080302002031DD12B0130A5
:1007A00032020318D42BD52B912B40013108FA00CB
:1007B0003008F9000800F80078080319E02BE12B55
:1007C000F52BF31FE42BE52BF52B7009FA007109CB
:1007D000FB007209FC007309FD00FA0A0319FB0A09
:1007E0000319FC0A0319FD0AFD2B7308FD007208AA
:1007F000FC007108FB007008FA00730872047104B1
:100800007004031D042C052C0E2C0030F300003066
:10081000F2000030F1000030F000862C9630F40039
:100820007408F9001E2C0130F4007408F907013037
:10083000FD36FC0CFB0CFA0C890B182CFE307D05E8
:10084000031D232C242C132C382C0130F4007408A5
:10085000F9070130FA070030FB3D0030FC3D003065
:10086000FD3D0130FD36FC0CFB0CFA0C890B322CE3
:10087000FF307D05031D3D2C3E2C252C482C0130DE
:10088000F9020130FA35FB0DFC0DFD0D890B422CF0
:10089000FC1B4B2C4C2C522C023079020318512C8F
:1008A000522C3F2C7918552C562C5E2CFF30FA0513
:1008B000FF30FB057F30FC05FF30FD050310F90C10
:1008C0007908F400F501F601F7011830F435F50D5B
:1008D000F60DF70D890B662C7408FA047508FB04F5
:1008E0007608FC047708FD0478080319782C792C25
:1008F0007E2CF31F7C2C7D2C7E2CFD177D08F300B5
:100900007C08F2007B08F1007A08F00008008031D2
:10091000C820843181314C2184318031D920843107
:1009200003304001C6008A30C5005530890B962C33
:10093000C50B962CC60B962C003200304001A4004B
:100940008830A5008031F120843183314023843107
:100950007A08FC007908FB00813170218431400164
:100960009D019C011F08F03901389F008D15003250
:100970000032000040018D110D1EBF2CC02CBC2C7C
:100980009E170D1AC42CC52CC12C9E131D08CA001D
:100990001C08C9004908F0004A08F100890D893B8C
:1009A0008909F200F30001308331DB2384317308BD
:1009B0004001A7007208A6007108A5007008A400F5
:1009C0003D30A3008B30A2004330A1009630A00040
:1009D00085319E25843140012308BD002208BC00DA
:1009E0002108BB002008BA008231CB2284314001AB
:1009F0003B08CA003A08C9004908013EC900003056
:100A00004A3DCA00460111084001C500C60145081B
:100A1000C7004608C8004A08803AC5008030450231
:100A2000031D142D02304902031C172D182D862D8D
:100A300040014A08803AC50081304502031D222D3D
:100A4000913049020318252D262D862D4430400172
:100A5000A4008830A5008031F120843140014A088B
:100A6000FA004908F9008231172284314001A400BC
:100A70000030A5008031F12084315F304001A400B6
:100A80008830A5008031F120843150304001A4002D
:100A90008830A5008031F120843181319521843165
:100AA0007108FA007008F900823117228431400180
:100AB000A4000030A5008031F12084315A3040017B
:100AC000A4008830A5008031F1208431223040011B
:100AD000A4008830A5008031F1208431400148080D
:100AE000FA004708F9008231172284314001A4003E
:100AF0000030A5008031F120843141304001A40054
:100B00008830A5008031F12084318E2D35304001B0
:100B1000A4008830A5008031F120843102304001EA
:100B2000C6000430C500BA30890B942DC50B942D36
:100B3000C60B942D0000A52C80310228400123080B
:100B40008039A8002808AD002335A8002808B30084
:100B5000A21FAB2DAC2DAD2D331433080319B12DCD
:100B6000B22DC12D330A031DB62DB72DBF2D003078
:100B7000A3000030A2000030A1000030A000A217A6
:100B8000C92D0030A3000030A2000030A1000030C9
:100B9000A00027088039A8002808AD062735A8003E
:100BA0002808B200A61FD52DD62DD72D3214320815
:100BB0000319DB2DDC2DEB2D320A031DE02DE12D79
:100BC000E92D0030A7000030A6000030A50000305D
:100BD000A400A617F32D0030A7000030A6000030B7
:100BE000A5000030A40032080319F72DF82DFD2DC3
:100BF0003308031DFC2DFD2D062E0030A300003010
:100C0000A2000030A1000030A000F42F2008A800AE
:100C10002808F0002608813129218531710840011A
:100C2000B9007008B8003808A800A901AA01AB01F2
:100C30002B08B1002A08B0002908AF002808AE0030
:100C40003908A800A901AA01AB012B08B7002A089E
:100C5000B6002908B5002808B4002108A800280813
:100C6000F000250881312921853171084001B90042
:100C70007008B8003808A800A901AA01AB0128082B
:100C8000AE072908AF3D2A08B03D2B08B13D390811
:100C9000A800A901AA01AB012808B4072908B53D9D
:100CA0002A08B63D2B08B73D2208A8002808F00006
:100CB000240881312921853171084001B90070086B
:100CC000B8003808A800A901AA01AB012808AE079E
:100CD0002908AF3D2A08B03D2B08B13D3908A800CE
:100CE000A901AA01AB012808B4072908B53D2A08C3
:100CF000B63D2B08B73D0830AE35AF0DB00DB10D88
:100D0000890B7C2E2108A8002808F00024088131D6
:100D10002921853171084001B9007008B8003808F0
:100D2000AE073908AF3D0030B03DB13D2008A80006
:100D30002808F000250881312921853171084001FA
:100D4000B9007008B8003808AE073908AF3D003068
:100D5000B03DB13D0830AE35AF0DB00DB10D890BD2
:100D6000AB2E2008A8002808F00024088131292192
:100D7000853171084001B9007008B8003808AE0725
:100D80003908AF3D0030B03DB13D2108A80028082A
:100D9000F000260881312921853171084001B90010
:100DA0007008B8003808B4073908B53D0030B63DC2
:100DB000B73D2208A8002808F00025088131292124
:100DC000853171084001B9007008B8003808B407CF
:100DD0003908B53D0030B63DB73D2208A8002808C7
:100DE000F000260881312921853171084001B900C0
:100DF0007008B8003808A8003908A900AA01AB019A
:100E00000830A835A90DAA0DAB0D890B012F2808B4
:100E1000B4072908B53D2A08B63D2B08B73D2E0872
:100E2000A8002F08A9003008AA003108AB0018302C
:100E3000AB36AA0CA90CA80C890B182F2808B407EC
:100E40002908B53D2A08B63D2B08B73D0830AE3518
:100E5000AF0DB00DB10D890B272F33083207A80055
:100E6000A901A90D2808823EB800FF30293DB9002C
:100E7000502F0130B435B50DB60DB70D890B3A2F93
:100E8000B11F432F442F452F34140130AE35AF0D21
:100E9000B00DB10D890B462FFF30B807FF30B93DBB
:100EA000B61F532F542F392FB201B11F582F592F6E
:100EB000752FFF302E05A800FF302F05A900FF3049
:100EC0003005AA007F303105AB002B082A04290425
:100ED000280403196C2F6D2F702FB201B20A752FE1
:100EE000341C732F742F752F6D2F32080319792F2F
:100EF0007A2FA22F0130B4070030B53D0030B63D47
:100F00000030B73D371C852F862FA22F3408A8004C
:100F10003508A9003608AA003708AB000130AC003C
:100F2000AB37AA0CA90CA80CAC0B902F2B08B70060
:100F30002A08B6002908B5002808B4000130B8070F
:100F40000030B93D3908803AA80080302802031DDE
:100F5000AB2FFF303802031CAE2FAF2FB92F7F30DD
:100F60004001B7008030B6000030B5000030B4005A
:100F7000E82F40013908803AA80080302802031D7C
:100F8000C32F013038020318C62FC72FD22F0030CD
:100F90004001B7000030B6000030B5000030B400AA
:100FA000AD01E82F40013808A8002808B300FF3041
:100FB000B405FF30B5057F30B6050030B705331CEA
:100FC000E22FE32FE42FB6173336A8002808B70026
:100FD0002D08A8002808B7043708A3003608A20087
:100FE0003508A1003408A000080049308400003012
:100FF00085000E308031B820873140018431872C44
:101000005B342A345D34533465347234693461346A
:101010006C34203443346F346E346E34653463344E
:10102000743469346F346E342034733475346334FB
:101030006334653473347334663475346C340D340E
:101040000A3400340934503457344D342034443495
:1010500075347434793420344334793463346C34E3
:10106000653420343D34203400344F3475347434C6
:1010700020346F3466342034523461346E34673433
:1010800065340D340A3400344434693473347434B0
:1010900061346E346334653420343D34203400349C
:1010A000093441346E3467346C34653420343D3453
:1010B0002034003420346434653467340034203400
:0610C00063346D340034BE
:020000040001F9
:0A000E00F93FFF3F9F3FFF3FFF3F18
:00000001FF
