:020000040000FA
:08000000803102288731F52F41
:1008E000640080010131890B712C0034F0004E014D
:1008F0000F1E7B2C7C2C772C700842019A0008007C
:10090000400113137E014E131030A60042019C01DA
:1009100019309B009F111E111E129D179E161E134B
:100920000800F300F201731C962C972C9B2C700886
:10093000F1007108F2070310F00D0310F30C7308B7
:10094000031DA32CA42C932C72080800F000153072
:100950007002031CAC2CAD2CB12C1430460191005C
:10096000BC2C7008031DB52CB62CB92C4601910186
:10097000BC2C70084601910008004001121692112B
:100980001211921412147E01C301400117159E1317
:100990001E16F0309E051F081F3940389F001F1695
:1009A0001F08F03901389F000800E32C2A08840052
:1009B0002B08850000088431762484310130400101
:1009C000AA070030AB3D40012A0884002B088500AF
:1009D0001200031DEC2CED2CD62C0800F401F501BF
:1009E000701CF32CF42CF82C7208F4077308F53DF6
:1009F0000130F235F30D890BF92C0130F136F00C92
:100A0000890BFE2C70087104031D072D082DF02C96
:100A10007508F1007408F0000800400111149114E9
:100A2000111591157E013810B8103811B811400118
:100A300092127E01C3120A309D009F30460192003F
:100A4000053044019E00133045018D00FF30460102
:100A50009000FF309100013045019000F0308E0091
:100A6000080040018D18352D362D3F2D0D1C392DD8
:100A70003A2D3F2D5A30F2000030F3005B2D8D18D7
:100A8000422D432D4C2D0D18462D472D4C2DB430A5
:100A9000F2000030F3005B2D8D1C4F2D502D592D91
:100AA0000D18532D542D592D0E30F2000130F30046
:100AB0005B2DF201F3017308F1007208F0000800E9
:100AC000F601F31F642D652D6C2DF209F309F20A6E
:100AD0000319F30AF601F60AF11F6F2D702D752D1B
:100AE000F009F109F00A0319F10A700871040319F9
:100AF0007A2D7B2DA42DF501F50A872D0130F035D7
:100B0000F10D890B7F2D0130F4007408F507F11FFA
:100B10008A2D8B2D7E2D71087302031D912D700877
:100B20007202031C942D952D992D7008F202710804
:100B3000F33B0130F136F00C890B9A2D0130F502B0
:100B4000031DA32DA42D8B2D76080319A82DA92DE7
:100B5000AE2DF209F309F20A0319F30A7308F10042
:100B60007208F000080040012508A7002408A6002C
:100B70000B30A8000030A900C401A51FC02DC12D55
:100B8000C62DA409A509A40A0319A50A0A30F00074
:100B90000030F1002508F3002408F20085316025BB
:100BA00085317008303EFB00FF304001A807FF3060
:100BB000A93D2808393E860087017B0881000A305C
:100BC000F6000030F7002508F9002408F800863107
:100BD0000826853177084001A5007608A40024087E
:100BE0002504031DF42DF52DC62DA71FF82DF92D75
:100BF000052E2D30FB00FF30A807FF30A93D280847
:100C0000393E860087017B0881002808393E0800AC
:100C10004001A101F71F0D2E0E2E152EF609F70922
:100C2000F60A0319F70AA101A10AF91F182E192EB5
:100C3000222EF809F909F80A0319F90A0130FA0015
:100C40007A08A106A201A301760877040319292EC8
:100C50002A2E592EA001A00A362E0130F635F70DA6
:100C6000890B2E2E0130FA007A08A007F71F392EC3
:100C70003A2E2D2E0130A235A30D890B3B2E77087D
:100C80007902031D452E76087802031C482E492E52
:100C90004E2E7608F8027708F93B22140130F73619
:100CA000F60C890B4F2E0130A002031D582E592E31
:100CB0003A2E210803195D2E5E2E632EA209A30988
:100CC000A20A0319A30A2308F7002208F600080065
:100CD00040010C1C6C2E6D2E722EE830A8000330E3
:100CE000A900742EA801A9018C1C772E782E7D2EC8
:100CF0006430AA000030AB007F2EAA01AB010C1DAE
:100D0000822E832E882E0A30AC000030AD008A2E51
:100D1000AC01AD018C1D8D2E8E2E932E0130AE00B8
:100D20000030AF00952EAE01AF012A082807A400BD
:100D30002B08293DA5002C082407A6002D08253DD9
:100D4000A7002E082607B3002F08273DB40033085C
:100D50003404031DAC2EAD2EAF2E0030F72EB101A2
:100D6000B10A0530A4002408B200E82E0A30F000D1
:100D70000030F10040013408F3003308F2008531FF
:100D80006025863170084001A4002408B0003108B5
:100D9000A4002408F00030088431912486314001F9
:100DA0003207A5002508B2000A30F6000030F7002F
:100DB0003408F9003308F8008631082686317708B0
:100DC0004001B4007608B3003135A4002408B10016
:100DD0003408803AA40080302402031DF12E013033
:100DE00033020318F42EF52EB62E40013208080007
:100DF00084318024863185310D2586318431BD24AE
:100E0000863103304001B6008A30B5005530890B79
:100E1000072FB50B072FB60B072F0032003040010C
:100E2000AA008830AB008431D5248631863168260B
:100E300086318431A624863140019D019C011F0822
:100E4000F03901389F008D1500320032000040015A
:100E50008D110D1E2C2F2D2F292F9E170D1A312F7E
:100E6000322F2E2F9E131D08B8001C08B700FA3031
:100E7000F6000030F7003808F1003708F0001130B4
:100E8000F2000030F3008431EE2486317108F9005D
:100E90007008F80086310826863177084001B800CE
:100EA0007608B7003708013EB7000030383DB8007B
:100EB000460111084001B5003508FD003808803AA8
:100EC000B50080303502031D672F02303702031C46
:100ED0006A2F6B2FDD2F40013808803AB500813032
:100EE0003502031D752F913037020318782F792FA3
:100EF000DD2F44304001AA008830AB008431D52476
:100F0000863140013808A5003708A4008531B32593
:100F100086314001AA000030AB008431D5248631EF
:100F20005F304001AA008830AB008431D52486317F
:100F300050304001AA008830AB008431D52486317E
:100F400085313125863171084001A5007008A40063
:100F50008531B32586314001AA000030AB008431D1
:100F6000D52486315A304001AA008830AB00843144
:100F7000D524863122304001AA008830AB0084316C
:100F8000D52486317D084001B500B6013508A4009E
:100F90003608A5008531B32586314001AA0000300E
:100FA000AB008431D524863141304001AA0088301D
:100FB000AB008431D5248631E52F35304001AA00BD
:100FC0008830AB008431D524863102304001B60030
:100FD0000430B500BA30890BEB2FB50BEB2FB60BF5
:100FE000EB2F0000162F80310228373084000030AC
:100FF00085000E3084317024873140018631F82E0F
:101000005B342A345D34533465347234693461346A
:101010006C34203443346F346E346E34653463344E
:10102000743469346F346E342034733475346334FB
:101030006334653473347334663475346C340D340E
:101040000A3400340934503457344D342034443495
:1010500075347434793420344334793463346C34E3
:10106000653420343D34203400344F3475347434C6
:1010700020346F3466342034523461346E34673433
:1010800065340D340A3400344434693473347434B0
:1010900061346E346334653420343D34203400349C
:1010A000093441346E3467346C34653420343D3453
:1010B0002034003420346434653467340034203400
:0610C00063346D340034BE
:020000040001F9
:0A000E00F93FFF3F9F3FFF3FFF3F18
:00000001FF
