:020000040000FA
:08000000803102288731F02F46
:10064400F0004E010F1E272B282B232B700842018C
:100654009A000800400113137E014E131030A600C7
:1006640042019C0119309B009F111E111E129D17FF
:100674009E161E1308004B2B2408840025088500B1
:10068400000883312223833101304001A407003064
:10069400A53D400124088400250885001200031D9F
:1006A400542B552B3E2B0800F601F31F5A2B5B2BC2
:1006B400622BF209F309F20A0319F30AF601F60AA6
:1006C400F11F652B662B6B2BF009F109F00A031956
:1006D400F10A700871040319702B712B9A2BF50120
:1006E400F50A7D2B0130F035F10D890B752B0130A6
:1006F400F4007408F507F11F802B812B742B71080B
:100704007302031D872B70087202031C8A2B8B2B28
:100714008F2B7008F2027108F33B0130F136F00CB4
:10072400890B902B0130F502031D992B9A2B812BF9
:10073400760803199E2B9F2BA42BF209F309F20AC6
:100744000319F30A7308F1007208F00008007A082C
:100754004001A1007908A0000B30A2000030A300E2
:10076400D501FA1FB62BB72BBC2BF909FA09F90AE4
:100774000319FA0A0A30F0000030F1007A08F30095
:100784007908F2008331562383317008303EFB0030
:10079400FF304001A207FF30A33D22084A3E8600F5
:1007A40087017B0881000A30F0000030F1007A08EC
:1007B400F3007908F2008331FE2383317108FA00D3
:1007C4007008F90079087A04031DE92BEA2BBC2B85
:1007D4004001A11FEE2BEF2BFB2B2D30FB00FF3034
:1007E400A207FF30A33D22084A3E860087017B080A
:1007F400810022084A3E0800F601F11F022C032C56
:100804000A2CF009F109F00A0319F10AF601F60AB3
:10081400F31F0D2C0E2C172CF209F309F20A0319FD
:10082400F30A0130F4007408F606F701F8017008C1
:10083400710403191E2C1F2C4E2CF501F50A2B2CC8
:100844000130F035F10D890B232C0130F4007408CC
:10085400F507F11F2E2C2F2C222C0130F735F80D23
:10086400890B302C71087302031D3A2C7008720234
:10087400031C3D2C3E2C432C7008F2027108F33B00
:1008840077140130F136F00C890B442C0130F50259
:10089400031D4D2C4E2C2F2C76080319522C532C4F
:1008A400582CF709F809F70A0319F80A7808F1002F
:1008B4007708F0000800031040013C0D3D0DBE0018
:1008C4003E08C4004408031D682C692C722C0030B7
:1008D400BD000030BC000030BB000030BA00D12C99
:1008E4003A08BE003B08BF003C08C0003D08C100F8
:1008F4001F30C136C00CBF0CBE0C890B7B2C3E08CC
:10090400C2004208C300BC17FF30BA05FF30BB0564
:10091400FF30BC050030BD059630C402C41F932CC3
:10092400942CAC2C4408803A973E03189A2C9B2CA8
:100934009C2C692C0130BD36BC0CBB0CBA0C890B49
:100944009D2C0130BE003E08C407031DAA2CAB2C0D
:100954009C2CC12C20304402031CB12CB22CBC2C86
:10096400692C0130BA35BB0DBC0DBD0D890BB42CFF
:100974000130C4024408031DC02CC12CB32C43080D
:100984000319C52CC62CD12CBA09BB09BC09BD0955
:10099400BA0A0319BB0A0319BC0A0319BD0A0800E1
:1009A400F80078080319D72CD82CEC2CF31FDB2C77
:1009B400DC2CEC2C7009FA007109FB007209FC00B4
:1009C4007309FD00FA0A0319FB0A0319FC0A031947
:1009D400FD0AF42C7308FD007208FC007108FB008A
:1009E4007008FA007308720471047004031DFB2C70
:1009F400FC2C052D0030F3000030F2000030F10033
:100A04000030F0007D2D9630F4007408F900152DA7
:100A14000130F4007408F9070130FD36FC0CFB0CBE
:100A2400FA0C890B0F2DFE307D05031D1A2D1B2D8D
:100A34000A2D2F2D0130F4007408F9070130FA074C
:100A44000030FB3D0030FC3D0030FD3D0130FD3603
:100A5400FC0CFB0CFA0C890B292DFF307D05031DC2
:100A6400342D352D1C2D3F2D0130F9020130FA357E
:100A7400FB0DFC0DFD0D890B392DFC1B422D432D67
:100A8400492D023079020318482D492D362D791845
:100A94004C2D4D2D552DFF30FA05FF30FB057F30D1
:100AA400FC05FF30FD050310F90C7908F400F5018D
:100AB400F601F7011830F435F50DF60DF70D890B35
:100AC4005D2D7408FA047508FB047608FC047708A5
:100AD400FD04780803196F2D702D752DF31F732DE8
:100AE400742D752DFD177D08F3007C08F2007B083A
:100AF400F1007A08F000080083312C23853103309B
:100B04004001C6008A30C5005530890B872DC50BBE
:100B1400872DC60B872D003200304001A400883099
:100B2400A50083313D238531400112100D101212AE
:100B34000D12103044018E0044018D018C014001DE
:100B44000D1400320032000040010D100D1EAB2DBB
:100B5400AC2DA82D44010E1440010D1AB22DB32D55
:100B6400AE2D44010E100C080D080D084001C500FF
:100B7400C6014508C600C501450844010C04F0003F
:100B840040014608F100F201F11BF2037208F30080
:100B940001308431D224853173084001A7007208E2
:100BA400A6007108A5007008A4004230A3006B30B1
:100BB400A2004730A100AE30A00086313C2685312A
:100BC40040012308BD002208BC002108BB00200806
:100BD400BA0084315D24853140013B08C9003A08DC
:100BE400C800C91BF62DF72D242E4908803AC500EC
:100BF40081304502031D002E913048020318032E54
:100C0400042E242E34304001A4008830A500833102
:100C14003D23853140014908FA004808F900833131
:100C2400A92385314001A4000030A50083313D2370
:100C3400853144304001A4008830A50083313D2330
:100C440085312C2E22304001A4008830A500833148
:100C54003D23853102304001C6004530C500A9302E
:100C6400890B322EC50B322EC60B322E00329E2D2E
:100C740080310228400127088039A8002808B100E3
:100C84002735A8002808B800A61F492E4A2E4B2E47
:100C94003814380803194F2E502E602E380A031DBD
:100CA400542E552E5D2E0030A7000030A6000030D3
:100CB400A5000030A400A617A701682E0030A700E5
:100CC4000030A6000030A5000030A40023088039BD
:100CD400A8002808B1062335A8002808B900A21FD7
:100CE400742E752E762E3914390803197A2E7B2E1C
:100CF4008B2E390A031D7F2E802E882E0030A300F0
:100D04000030A2000030A1000030A000A217A3010F
:100D1400932E0030A3000030A2000030A100003068
:100D2400A0002308220421042004031D9A2E9B2ED4
:100D3400B42E0030A7000030A6000030A50000301B
:100D4400A4008030A6047F30A7043108A800280836
:100D5400A7042708A3002608A2002508A100240848
:100D6400A000EF2F3808031DB82EB92EC22E003074
:100D7400A3000030A2000030A1000030A000EF2F3B
:100D84003808A800A9012908AB0039082802AA00DC
:100D9400031CAB032A087F3EB20000302B3DB30096
:100DA4002708B0002608AF002508AE002408AD00CF
:100DB4000030A7000030A6000030A5000030A400D9
:100DC4000030B7000030B6000030B5000030B40089
:100DD400B9012A2F39080319F02EF12E0B2F0130F7
:100DE400AD35AE0DAF0DB00D890BF22E0130A4352B
:100DF400A50DA60DA70D890BF92EB71F022F032FE2
:100E0400042F24140130B435B50DB60DB70D890B7C
:100E1400052F23083002031D192F22082F02031D5A
:100E2400192F21082E02031D192F20082D02031C3F
:100E34001C2F1D2F262F37172008AD022108AE3B8B
:100E44002208AF3B2308B03B0130A8002808B907AB
:100E54001A303902031C2F2F302FEC2E30082F04A8
:100E64002E042D040319372F382F512F3414512FEA
:100E74000130A435A50DA60DA70D890B3B2FB71F77
:100E8400442F452F462F24140130B435B50DB60D2B
:100E9400B70D890B472FFF30B207FF30B33DA61FB4
:100EA400542F552F3A2FB901B71F592F5A2F762F88
:100EB400FF303405A800FF303505A900FF303605A2
:100EC400AA007F303705AB002B082A042904280424
:100ED40003196D2F6E2F712FB901B90A762F241CB7
:100EE400742F752F762F6E2F390803197A2F7B2FC5
:100EF400A32F0130A4070030A53D0030A63D0030EB
:100F0400A73D271C862F872FA32F2408A800250878
:100F1400A9002608AA002708AB000130AC00AB37B3
:100F2400AA0CA90CA80CAC0B912F2B08A7002A081B
:100F3400A6002908A5002808A4000130B207003043
:100F4400B33D3308803AA80080302802031DAC2F3B
:100F5400FF303202031CAF2FB02FBD2FFF304001F2
:100F6400B2000030B3000030A7000030A60000300B
:100F7400A5000030A40040013308803AA800803066
:100F84002802031DC72F013032020318CA2FCB2FAA
:100F9400D72F4001B201B3010030A7000030A600F2
:100FA4000030A5000030A400B10140013208A800BF
:100FB4002808B800381CDF2FE02FE22FA617E62FF1
:100FC4007F30A8002808A6053836A8002808A700FE
:100FD4003108A8002808A704AB2E08004001CA0164
:100FE400CB01CC01CD01CE01CF01D001D101D20181
:100FF400D301D401D501400185317E2D5B342A34DF
:101004005D34533465347234693461346C3420345F
:1010140043346F346E346E346534633474346934F9
:101024006F346E342034733475346334633465340C
:1010340073347334663475346C340D340A340034C8
:101044005B3421345D344F347534743420346F345C
:1010540066342034523461346E34673465340D346C
:101064000A3400345B342B345D3420344434693422
:101074007334743461346E346334653420343D34F1
:1010840020340034203463346D340D340A34003495
:020000040001F9
:0A000E00F93FFF3F9F3FFF3FFF3F18
:00000001FF
