:020000040000FA
:08000000803102288731FB2F3B
:100F7800F0004E010F1EC12FC22FBD2F7008420175
:100F88009A0008008731D32787310030F100883074
:100F9800F2008731E4278731D02F803102284001C1
:100FA80013137E014E131030A60042019C01193024
:100FB8009B009F111E111E129D179E161E130800DE
:100FC800F12F710884007208850000088731BC275A
:100FD80087310130F1070030F23D71088400720852
:100FE80085001200031DF92FFA2FE52F0800F401E0
:100FF800F50140018731C62F5B342A345D34533400
:1010080065347234693461346C34203443346F3459
:101018006E346E3465346334743469346F346E34CA
:1010280020347334753463346334653473347334FF
:10103800663475346C340034323437343034003428
:0E10480031343834303400343934303400342C
:020000040001F9
:0A000E00F93FFF3F9F3FFF3FFF3F18
:00000001FF
