:020000040000FA
:08000000803102288731FD2F39
:100F6600F0004E010F1EB82FB92FB42F70084201A2
:100F76009A0008008731E02787310030F100883079
:100F8600F2008731C927873180310228D62F7108B0
:100F960084007208850000088731B3278731013045
:100FA600F1070030F23D71088400720885001200D6
:100FB600031DDE2FDF2FCA2F080010307E019C0094
:100FC60042019E161E131E124001131342011D16E6
:100FD6001D134001931742019C0132309B001E15E0
:100FE6009F159D179D17400192107E01C310400169
:100FF6008D14080040018731BD2F2D342D342D343A
:101006002D342D342D342D342D342D342D342D34D2
:101016002D342D342D342D342D346C346534663412
:1010260074342D342D342D342D342D342D342D346B
:101036002D342D342D342D342D342D342D342D34A2
:041046002D34003411
:020000040001F9
:0A000E00F9173F379F3FFF2FFF3F18
:00000001FF
