:020000040000FA
:08000000803102288731F52F41
:10048600640080010131890B442A0034F0004E01DA
:100496000F1E4E2A4F2A4A2A700842019A00080067
:1004A60040019E131E16F0309E051F081F39403866
:1004B6009F001F161F08F03901389F0008004001F1
:1004C60013137E014E131030A60042019C01193011
:1004D6009B009F111E111E129D179E161E130800CB
:1004E600812A2408840025088500000882314922D3
:1004F600823101304001A4070030A53D40012408A7
:100506008400250885001200031D8A2A8B2A742A76
:100516000800F800F401F5017008F200F301720812
:10052600F6007308F700781C992A9A2A9E2A7608FC
:10053600F4077708F53D0130F635F70D890B9F2A4C
:100546000310F80C7808031DA92AAA2A962A75080A
:10055600F1007408F0000800F601F31FB32AB42A6C
:10056600BB2AF209F309F20A0319F30AF601F60A9D
:10057600F11FBE2ABF2AC42AF009F109F00A03199D
:10058600F10A700871040319C92ACA2AF32AF50167
:10059600F50AD62A0130F035F10D890BCE2A013045
:1005A600F4007408F507F11FD92ADA2ACD2A710852
:1005B6007302031DE02A70087202031CE32AE42A70
:1005C600E82A7008F2027108F33B0130F136F00CAC
:1005D600890BE92A0130F502031DF22AF32ADA2AE9
:1005E60076080319F72AF82AFD2AF209F309F20A0E
:1005F6000319F30A7308F1007208F00008007A087C
:100606004001A1007908A0000B30A2000030A30031
:10061600D401FA1F0F2B102B152BF909FA09F90A29
:100626000319FA0A0A30F0000030F1007A08F300E4
:100636007908F2008231AF2283317008303EFB0028
:10064600FF304001A207FF30A33D2208493E860045
:1006560087017B0881000A30F0000030F1007A083B
:10066600F3007908F2008331572383317108FA00C9
:100676007008F90079087A04031D422B432B152BC9
:100686004001A11F472B482B542B2D30FB00FF3078
:10069600A207FF30A33D2208493E860087017B085A
:1006A60081002208493E0800F601F11F5B2B5C2BF6
:1006B600632BF009F109F00A0319F10AF601F60AAB
:1006C600F31F662B672B702BF209F309F20A031945
:1006D600F30A0130F4007408F606F701F801700811
:1006E60071040319772B782BA72BF501F50A842BB8
:1006F6000130F035F10D890B7C2B0130F4007408C4
:10070600F507F11F872B882B7B2B0130F735F80D6A
:10071600890B892B71087302031D932B70087202D3
:10072600031C962B972B9C2B7008F2027108F33B47
:1007360077140130F136F00C890B9D2B0130F50250
:10074600031DA62BA72B882B76080319AB2BAC2BE6
:10075600B12BF709F809F70A0319F80A7808F10026
:100766007708F0000800031040013C0D3D0DBE0067
:100776003E08C4004408031DC12BC22BCB2B0030FE
:10078600BD000030BC000030BB000030BA002A2C8F
:100796003A08BE003B08BF003C08C0003D08C10047
:1007A6001F30C136C00CBF0CBE0C890BD42B3E08C3
:1007B600C2004208C300BC17FF30BA05FF30BB05B4
:1007C600FF30BC050030BD059630C402C41FEC2BBB
:1007D600ED2B052C4408803A973E0318F32BF42B97
:1007E600F52BC22B0130BD36BC0CBB0CBA0C890BE9
:1007F600F62B0130BE003E08C407031D032C042C53
:10080600F52B1A2C20304402031C0A2C0B2C152C19
:10081600C22B0130BA35BB0DBC0DBD0D890B0D2C9D
:100826000130C4024408031D192C1A2C0C2C430851
:1008360003191E2C1F2C2A2CBA09BB09BC09BD0999
:10084600BA0A0319BB0A0319BC0A0319BD0A080030
:10085600F80078080319302C312C452CF31F342C62
:10086600352C452C7009FA007109FB007209FC0051
:100876007309FD00FA0A0319FB0A0319FC0A031996
:10088600FD0A4D2C7308FD007208FC007108FB0080
:100896007008FA007308720471047004031D542C66
:1008A600552C5E2C0030F3000030F2000030F100D1
:1008B6000030F000D62C9630F4007408F9006E2C47
:1008C6000130F4007408F9070130FD36FC0CFB0C0E
:1008D600FA0C890B682CFE307D05031D732C742CD5
:1008E600632C882C0130F4007408F9070130FA07EC
:1008F6000030FB3D0030FC3D0030FD3D0130FD3653
:10090600FC0CFB0CFA0C890B822CFF307D05031DB9
:100916008D2C8E2C752C982C0130F9020130FA356D
:10092600FB0DFC0DFD0D890B922CFC1B9B2C9C2CAE
:10093600A22C023079020318A12CA22C8F2C791834
:10094600A52CA62CAE2CFF30FA05FF30FB057F3018
:10095600FC05FF30FD050310F90C7908F400F501DC
:10096600F601F7011830F435F50DF60DF70D890B84
:10097600B62C7408FA047508FB047608FC0477089C
:10098600FD0478080319C82CC92CCE2CF31FCC2CD7
:10099600CD2CCE2CFD177D08F3007C08F2007B08D9
:1009A600F1007A08F0000800823162228431823137
:1009B6005322843103304001C6008A30C5005530C9
:1009C600890BE32CC50BE32CC60BE32C003200305D
:1009D6004001A4008830A500823173228431FE30A4
:1009E60040019200EF307E01C30040019D019C0151
:1009F6001F08F03901389F000D1400320032000044
:100A060040010D100D1E082D092D052D9E170D1ADE
:100A16000D2D0E2D0A2D9E131D08C8001C08C7009B
:100A26004708F0004808F100890D893B8909F20062
:100A3600F300013084312B24843173084001A70070
:100A46007208A6007108A5007008A4003D30A30036
:100A56008B30A2004330A1009630A00085319E2540
:100A6600843140012308BD002208BC002108BB00D8
:100A76002008BA008331B623843140013B08C80000
:100A86003A08C7004708013EC7000030483DC80085
:100A96004808803AC50080304502031D542D0230B7
:100AA6004702031C572D582D862D40014808803AD1
:100AB600C50081304502031D622D9130470203189F
:100AC600652D662D862D31304001A4008830A500A5
:100AD60082317322843140014808FA004708F90040
:100AE6008331022384314001A4000030A500823105
:100AF600732284313D304001A4008830A500823144
:100B0600732284318E2D22304001A4008830A50046
:100B160082317322843102304001C6000430C500A0
:100B2600BA30890B942DC50B942DC60B942D00005D
:100B3600F82C80310228400123088039A8002808B3
:100B4600AD002335A8002808B300A21FAB2DAC2D9D
:100B5600AD2D331433080319B12DB22DC12D330A2F
:100B6600031DB62DB72DBF2D0030A3000030A20007
:100B76000030A1000030A000A217C92D0030A3004C
:100B86000030A2000030A1000030A0002708803904
:100B9600A8002808AD062735A8002808B200A61F19
:100BA600D52DD62DD72D321432080319DB2DDC2D89
:100BB600EB2D320A031DE02DE12DE92D0030A700B3
:100BC6000030A6000030A5000030A400A617F32DC3
:100BD6000030A7000030A6000030A5000030A400B9
:100BE60032080319F72DF82DFD2D3308031DFC2DB2
:100BF600FD2D062E0030A3000030A2000030A1001B
:100C06000030A000F42F2008A8002808F0002608CD
:100C160082318C22853171084001B9007008B80014
:100C26003808A800A901AA01AB012B08B1002A08BF
:100C3600B0002908AF002808AE003908A800A901AD
:100C4600AA01AB012B08B7002A08B6002908B5008F
:100C56002808B4002108A8002808F00025088231D9
:100C66008C22853171084001B9007008B800380837
:100C7600A800A901AA01AB012808AE072908AF3DC3
:100C86002A08B03D2B08B13D3908A800A901AA01E0
:100C9600AB012808B4072908B53D2A08B63D2B083C
:100CA600B73D2208A8002808F000240882318C22CB
:100CB600853171084001B9007008B8003808A800ED
:100CC600A901AA01AB012808AE072908AF3D2A08E9
:100CD600B03D2B08B13D3908A800A901AA01AB0116
:100CE6002808B4072908B53D2A08B63D2B08B73DA4
:100CF6000830AE35AF0DB00DB10D890B7C2E210835
:100D0600A8002808F000240882318C228531710859
:100D16004001B9007008B8003808AE073908AF3D81
:100D26000030B03DB13D2008A8002808F000250895
:100D360082318C22853171084001B9007008B800F3
:100D46003808AE073908AF3D0030B03DB13D083038
:100D5600AE35AF0DB00DB10D890BAB2E2008A80036
:100D66002808F000240882318C2285317108400160
:100D7600B9007008B8003808AE073908AF3D003032
:100D8600B03DB13D2108A8002808F00026088231B0
:100D96008C22853171084001B9007008B800380806
:100DA600B4073908B53D0030B63DB73D2208A80066
:100DB6002808F000250882318C228531710840010F
:100DC600B9007008B8003808B4073908B53D0030D6
:100DD600B63DB73D2208A8002808F0002608823153
:100DE6008C22853171084001B9007008B8003808B6
:100DF600A8003908A900AA01AB010830A835A90D39
:100E0600AA0DAB0D890B012F2808B4072908B53D9B
:100E16002A08B63D2B08B73D2E08A8002F08A900C2
:100E26003008AA003108AB001830AB36AA0CA90C62
:100E3600A80C890B182F2808B4072908B53D2A08DD
:100E4600B63D2B08B73D0830AE35AF0DB00DB10D30
:100E5600890B272F33083207A800A901A90D2808F6
:100E6600823EB800FF30293DB900502F0130B4351D
:100E7600B50DB60DB70D890B3A2FB11F432F442F71
:100E8600452F34140130AE35AF0DB00DB10D890BC1
:100E9600462FFF30B807FF30B93DB61F532F542FEA
:100EA600392FB201B11F582F592F752FFF302E053C
:100EB600A800FF302F05A900FF303005AA007F30BB
:100EC6003105AB002B082A042904280403196C2FCA
:100ED6006D2F702FB201B20A752F341C732F742F29
:100EE600752F6D2F32080319792F7A2FA22F013013
:100EF600B4070030B53D0030B63D0030B73D371C75
:100F0600852F862FA22F3408A8003508A900360899
:100F1600AA003708AB000130AC00AB37AA0CA90C0D
:100F2600A80CAC0B902F2B08B7002A08B60029088E
:100F3600B5002808B4000130B8070030B93D3908BB
:100F4600803AA80080302802031DAB2FFF303802FC
:100F5600031CAE2FAF2FB92F7F304001B700803072
:100F6600B6000030B5000030B400E82F4001390863
:100F7600803AA80080302802031DC32F01303802B2
:100F86000318C62FC72FD22F00304001B7000030FC
:100F9600B6000030B5000030B400AD01E82F4001C6
:100FA6003808A8002808B300FF30B405FF30B5059F
:100FB6007F30B6050030B705331CE22FE32FE42F50
:100FC600B6173336A8002808B7002D08A800280849
:100FD600B7043708A3003608A2003508A100340874
:100FE600A000080047308400003085000E308231B2
:100FF6004322873140018431D72C5B342A345D3457
:10100600533465347234693461346C342034433477
:101016006F346E346E3465346334743469346F34CB
:101026006E34203473347534633463346534733406
:101036007334663475346C340D340A3400344F34EA
:101046007534743420346F34663420345234613449
:101056006E34673465340D340A34003444346934EC
:101066007334743461346E346334653420343D34FF
:1010760020340034203463346D340D340A340034A3
:020000040001F9
:0A000E00F93FFF3F9F3FFF3FFF3F18
:00000001FF
