:020000040000FA
:08000000803102288731F52F41
:100F400005340034F0004E010F1EA72FA82FA32F49
:100F5000700842019A0008007E01D9014001940105
:100F60008F178731D82787310030F1008830F200A1
:100F70008731C12787310A308731A22787318031F5
:100F80000228CE2F7108840072088500000887317E
:100F9000A22787310130F1070030F23D710884004B
:100FA000720885001200031DD62FD72FC22F08000C
:100FB00010307E019C0042019E161E131E1240013D
:100FC000131342011D161D134001931742019C018A
:100FD00032309B001E159F159D179D1740019210E2
:100FE0007E01C31040018D1408008731A02787318E
:100FF000F4008731A1278731F50040018731AC2FFC
:101000002D342D342D342D342D342D342D342D34D8
:101010002D342D342D342D342D342D342D342D34C8
:101020006C346534663474342D342D342D342D34C1
:101030002D342D342D342D342D342D342D342D34A8
:0A1040002D342D342D342D340034EE
:020000040001F9
:0A000E00F9173F379F3FFF2FFF3F18
:00000001FF
