:0400000002EF05F016
:0F0800000048656C6C6F20576F726C64000000CD
:10081000000E936E939A9398000ECDEC04F0020EA6
:10082000056ED40E046E850EE82EFED7042EFCD77E
:10083000052EFAD700F0080E046ECA0EE82EFED779
:10084000042EFCD7030EF3EC04F04E0E046EEB0EF8
:10085000E82EFED7042EFCD700F0030EF3EC04F0D4
:10086000030E046E550EE82EFED7042EFCD700F0C2
:10087000030EF3EC04F0020EF3EC04F0020EF3ECC2
:1008800004F0080EF3EC04F0000EF3EC04F00C0E90
:10089000F3EC04F0000EF3EC04F0060EF3EC04F0BD
:1008A0001200056E05500F0B036E0550F00B046E21
:1008B000818A04380F0BCDEC04F08188080E026E9B
:1008C000CA0EE82EFED7022EFCD78198080E026EC3
:1008D000CA0EE82EFED7022EFCD70350CDEC04F052
:1008E0008188080E026ECA0EE82EFED7022EFCD7B3
:1008F0008198080E026ECA0EE82EFED7022EFCD793
:100900001200056E0504D8A40FD004507F0F086EA6
:1009100008380F0B076E08500F0B066E0750F3ECEC
:1009200004F00650F3EC04F0020E0518D8A41200EF
:100930000450BF0F086E08380F0B076E08500F0BDE
:10094000066E0750F3EC04F00650F3EC04F01200CE
:10095000000E0B6E000E0A6E10D00A500624086EB0
:100960000B500720096E08C0F6FF09C0F7FF08000A
:10097000F55051EC04F00A4A0B2A0A500624086E7E
:100980000B500720096E08C0F6FF09C0F7FF0800EA
:10099000F5500009D8B41200E0D7016E01A002D0D2
:1009A000818001D0819001A202D0818201D0819208
:1009B00001A402D0818401D0819401A602D0818655
:1009C00012008196120008EC04F009EC05F0010E0B
:1009D000046E010E81EC04F0010E066E080E076E27
:1009E000A8EC04F0FFD7036E819A0350CDEC04F01D
:1009F0008188080E026ECA0EE82EFED7022EFCD7A2
:100A000081981200000EF86E080EF76E0001E3EFF9
:100A100004F0000EF3EC04F0010EF3EC04F012000D
:020000040020DA
:08000000FFFFFFFFFFFFFFFF00
:020000040030CA
:0E000000018E191EFF8181FF0FC00FE00F401F
:00000001FF
