:020000040000FA
:020000001028C6
:040002000034003492
:02000800572877
:1000200083120313920112149701910189309F00EA
:100030008601870188018901B001B101B201B301D4
:10004000B401B501B801831602309F00FF3086006D
:100050008500870188018901831207149001D83037
:100060008F00F0308E008B0183168C0183128C017F
:10007000203090000B178B1783160C14831210146A
:1000800083127020061C4228B70A861CB80A30303A
:1000900038020319B80106184B2842282030D10035
:1000A000A030D200D20B5228D10B502808001010DB
:1000B0000C10D8308F00F0308E00B50A7D3035023C
:1000C000031D6D28B50101308706071C6D28370810
:1000D000B701C100C0017721F12110140900080007
:1000E0003030A0008D20A1203030A0008D20AA202B
:1000F0003030A0008D20B8200130A0008D20B82025
:100100000630A0008D20B8200C30A0008D20B82033
:100110003830A0008D20B820080000308900200869
:10012000880001308900AF200030890008000230CB
:1001300089002008880003308900AF200230890040
:100140000800CD30A3002030A200A20BA528A30BED
:10015000A32808002030A200A20BAC280800193008
:10016000A300FA30A200A20BB328A30BB128080009
:100170000A30A4001930A300FA30A200A20BBE2856
:10018000A30BBC28A40BBA280800C501C7010310A3
:1001900043084118C507C50CC70CC118C507C50CD5
:1001A000C70C4119C507C50CC70CC119C507C50C3B
:1001B000C70C411AC507C50CC70CC11AC507C50C29
:1001C000C70C411BC507C50CC70CC11BC507C50C17
:1001D000C70CC4014018C507C50CC40CC018C5071E
:1001E000C50CC40C4019C507C50CC40CC019C50703
:1001F000C50CC40C401AC507C50CC40CC01AC507F1
:10020000C50CC40C401BC507C50CC40CC01BC507DE
:10021000C50CC40CC60142084118C407C40CC60C66
:10022000C118C407C40CC60C4119C407C40CC60CC1
:10023000C119C407C40CC60C411AC407C40CC60CAF
:10024000C11AC407C40CC60C411BC407C40CC60C9D
:10025000C11BC407C40CC60CC8014018C407C40C99
:10026000C80CC018C407C40CC80C4019C407C40C7F
:10027000C80CC019C407C40CC80C401AC407C40C6D
:10028000C80CC01AC407C40CC80C401BC407C40C5B
:10029000C80CC01BC407C40CC80C4808C507031809
:1002A000C40A08003008F038B300B307B307B4003D
:1002B000FB3EB407293EB200310EF038B307B20757
:1002C000B20DB209B20D31080F39B207B30D0530C6
:1002D000C9000A30B207B303031C6A29B307B40389
:1002E000031C6E29B407C903031C722908000F30D0
:1002F000C300C201C5204708B1004608B000522122
:100300008030A0008D20B8205030A0009720B82069
:100310005730A0009720B8204D30A0009720B8207B
:100320002030A0009720B8204630A0009720B820A9
:100330006130A0009720B8206E30A0009720B82030
:100340002030A0009720B8204330A0009720B8208C
:100350006F30A0009720B8206E30A0009720B82002
:100360007430A0009720B8207230A0009720B820E9
:100370006F30A0009720B8206C30A0009720B820E4
:10038000C030A0008D20B8205230A0009720B820A7
:100390005030A0009720B8204D30A0009720B82002
:1003A0002D30A0009720B820C908031DDC2920307B
:1003B000A0009720B820E12930304907A0009720FD
:1003C000B82030303407A0009720B82030303307F1
:1003D000A0009720B82030303207A0009720B82026
:1003E00008003808950083163030920007118312F8
:1003F0008C010C30970012150800831205221F157E
:100400001F19002A0A221E0887002030A200A20B12
:0E041000072A08000630A200A20B0C2A0800E2
:02400E003A3F37
:00000001FF
